{
  "contractName": "DocumentRegistration",
  "abi": [
    {
      "constant": true,
      "inputs": [],
      "name": "creator",
      "outputs": [
        {
          "name": "",
          "type": "address"
        }
      ],
      "payable": false,
      "stateMutability": "view",
      "type": "function"
    },
    {
      "constant": true,
      "inputs": [
        {
          "name": "",
          "type": "bytes32"
        }
      ],
      "name": "temporaryRegistry",
      "outputs": [
        {
          "name": "name",
          "type": "string"
        },
        {
          "name": "metadata",
          "type": "string"
        },
        {
          "name": "timestamp",
          "type": "uint256"
        },
        {
          "name": "registrant",
          "type": "address"
        },
        {
          "name": "signee",
          "type": "address"
        },
        {
          "name": "hash",
          "type": "bytes32"
        },
        {
          "name": "isEntity",
          "type": "bool"
        }
      ],
      "payable": false,
      "stateMutability": "view",
      "type": "function"
    },
    {
      "constant": true,
      "inputs": [
        {
          "name": "",
          "type": "address"
        },
        {
          "name": "",
          "type": "uint32"
        }
      ],
      "name": "userDocs",
      "outputs": [
        {
          "name": "name",
          "type": "string"
        },
        {
          "name": "metadata",
          "type": "string"
        },
        {
          "name": "timestamp",
          "type": "uint256"
        },
        {
          "name": "registrant",
          "type": "address"
        },
        {
          "name": "signee",
          "type": "address"
        },
        {
          "name": "hash",
          "type": "bytes32"
        },
        {
          "name": "isEntity",
          "type": "bool"
        }
      ],
      "payable": false,
      "stateMutability": "view",
      "type": "function"
    },
    {
      "constant": true,
      "inputs": [
        {
          "name": "",
          "type": "uint256"
        }
      ],
      "name": "registrants",
      "outputs": [
        {
          "name": "name",
          "type": "string"
        },
        {
          "name": "description",
          "type": "string"
        },
        {
          "name": "user",
          "type": "address"
        },
        {
          "name": "isEntity",
          "type": "bool"
        }
      ],
      "payable": false,
      "stateMutability": "view",
      "type": "function"
    },
    {
      "constant": true,
      "inputs": [
        {
          "name": "",
          "type": "bytes32"
        }
      ],
      "name": "registry",
      "outputs": [
        {
          "name": "name",
          "type": "string"
        },
        {
          "name": "metadata",
          "type": "string"
        },
        {
          "name": "timestamp",
          "type": "uint256"
        },
        {
          "name": "registrant",
          "type": "address"
        },
        {
          "name": "signee",
          "type": "address"
        },
        {
          "name": "hash",
          "type": "bytes32"
        },
        {
          "name": "isEntity",
          "type": "bool"
        }
      ],
      "payable": false,
      "stateMutability": "view",
      "type": "function"
    },
    {
      "constant": true,
      "inputs": [
        {
          "name": "",
          "type": "address"
        }
      ],
      "name": "verifiedAddress",
      "outputs": [
        {
          "name": "name",
          "type": "string"
        },
        {
          "name": "description",
          "type": "string"
        },
        {
          "name": "user",
          "type": "address"
        },
        {
          "name": "isEntity",
          "type": "bool"
        }
      ],
      "payable": false,
      "stateMutability": "view",
      "type": "function"
    },
    {
      "constant": true,
      "inputs": [],
      "name": "current",
      "outputs": [
        {
          "name": "",
          "type": "address"
        }
      ],
      "payable": false,
      "stateMutability": "view",
      "type": "function"
    },
    {
      "constant": true,
      "inputs": [
        {
          "name": "",
          "type": "uint256"
        }
      ],
      "name": "prices",
      "outputs": [
        {
          "name": "",
          "type": "uint128"
        }
      ],
      "payable": false,
      "stateMutability": "view",
      "type": "function"
    },
    {
      "constant": true,
      "inputs": [
        {
          "name": "",
          "type": "uint256"
        }
      ],
      "name": "documents",
      "outputs": [
        {
          "name": "name",
          "type": "string"
        },
        {
          "name": "metadata",
          "type": "string"
        },
        {
          "name": "timestamp",
          "type": "uint256"
        },
        {
          "name": "registrant",
          "type": "address"
        },
        {
          "name": "signee",
          "type": "address"
        },
        {
          "name": "hash",
          "type": "bytes32"
        },
        {
          "name": "isEntity",
          "type": "bool"
        }
      ],
      "payable": false,
      "stateMutability": "view",
      "type": "function"
    },
    {
      "constant": true,
      "inputs": [
        {
          "name": "",
          "type": "address"
        }
      ],
      "name": "docsPerUser",
      "outputs": [
        {
          "name": "",
          "type": "uint32"
        }
      ],
      "payable": false,
      "stateMutability": "view",
      "type": "function"
    },
    {
      "constant": true,
      "inputs": [
        {
          "name": "",
          "type": "uint256"
        }
      ],
      "name": "temporaryDocs",
      "outputs": [
        {
          "name": "name",
          "type": "string"
        },
        {
          "name": "metadata",
          "type": "string"
        },
        {
          "name": "timestamp",
          "type": "uint256"
        },
        {
          "name": "registrant",
          "type": "address"
        },
        {
          "name": "signee",
          "type": "address"
        },
        {
          "name": "hash",
          "type": "bytes32"
        },
        {
          "name": "isEntity",
          "type": "bool"
        }
      ],
      "payable": false,
      "stateMutability": "view",
      "type": "function"
    },
    {
      "anonymous": false,
      "inputs": [
        {
          "indexed": false,
          "name": "index",
          "type": "uint256"
        }
      ],
      "name": "DocumentIndex",
      "type": "event"
    },
    {
      "constant": false,
      "inputs": [
        {
          "name": "_price1",
          "type": "uint128"
        },
        {
          "name": "_price2",
          "type": "uint128"
        },
        {
          "name": "_price3",
          "type": "uint128"
        },
        {
          "name": "_price4",
          "type": "uint128"
        }
      ],
      "name": "setPrices",
      "outputs": [],
      "payable": false,
      "stateMutability": "nonpayable",
      "type": "function"
    },
    {
      "constant": false,
      "inputs": [
        {
          "name": "_index",
          "type": "uint8"
        },
        {
          "name": "_price",
          "type": "uint128"
        }
      ],
      "name": "setPrice",
      "outputs": [],
      "payable": false,
      "stateMutability": "nonpayable",
      "type": "function"
    },
    {
      "constant": false,
      "inputs": [
        {
          "name": "_owner",
          "type": "address"
        }
      ],
      "name": "setOwner",
      "outputs": [],
      "payable": false,
      "stateMutability": "nonpayable",
      "type": "function"
    },
    {
      "constant": false,
      "inputs": [
        {
          "name": "_current",
          "type": "address"
        }
      ],
      "name": "setCurrent",
      "outputs": [],
      "payable": false,
      "stateMutability": "nonpayable",
      "type": "function"
    },
    {
      "constant": false,
      "inputs": [
        {
          "name": "_name",
          "type": "string"
        },
        {
          "name": "_metadata",
          "type": "string"
        },
        {
          "name": "_fileHash",
          "type": "bytes32"
        }
      ],
      "name": "registerDocument",
      "outputs": [],
      "payable": true,
      "stateMutability": "payable",
      "type": "function"
    },
    {
      "constant": false,
      "inputs": [
        {
          "name": "_name",
          "type": "string"
        },
        {
          "name": "_metadata",
          "type": "string"
        },
        {
          "name": "_fileHash",
          "type": "bytes32"
        },
        {
          "name": "_signee",
          "type": "address"
        }
      ],
      "name": "registerMultiSig",
      "outputs": [],
      "payable": true,
      "stateMutability": "payable",
      "type": "function"
    },
    {
      "constant": false,
      "inputs": [
        {
          "name": "_name",
          "type": "string"
        },
        {
          "name": "_temporaryIndex",
          "type": "uint32"
        }
      ],
      "name": "signDocument",
      "outputs": [
        {
          "name": "",
          "type": "uint256"
        }
      ],
      "payable": true,
      "stateMutability": "payable",
      "type": "function"
    },
    {
      "constant": false,
      "inputs": [
        {
          "name": "_name",
          "type": "string"
        },
        {
          "name": "_description",
          "type": "string"
        }
      ],
      "name": "registerAddress",
      "outputs": [],
      "payable": true,
      "stateMutability": "payable",
      "type": "function"
    },
    {
      "constant": false,
      "inputs": [
        {
          "name": "_name",
          "type": "string"
        },
        {
          "name": "_description",
          "type": "string"
        }
      ],
      "name": "updateInfo",
      "outputs": [],
      "payable": true,
      "stateMutability": "payable",
      "type": "function"
    },
    {
      "constant": true,
      "inputs": [
        {
          "name": "_name",
          "type": "string"
        },
        {
          "name": "_nameIndex",
          "type": "uint256"
        },
        {
          "name": "_fileHash",
          "type": "bytes32"
        }
      ],
      "name": "verifyDocument",
      "outputs": [
        {
          "name": "",
          "type": "bool"
        }
      ],
      "payable": false,
      "stateMutability": "view",
      "type": "function"
    }
  ],
  "bytecode": "0x608060405234801561001057600080fd5b50614e1a806100206000396000f3fe60806040526004361061011d576000357c0100000000000000000000000000000000000000000000000000000000900463ffffffff16806302d05d3f146101225780630e4d786a1461017957806313af40351461026d5780631a8e3c3b146102be578063456754641461030f5780634655948b146104ae57806347d5a091146106735780635bb15db4146107c55780636ac4d582146109215780637ef5029814610a7f57806393d4457a14610c1e5780639e091e3114610d925780639fa6a6e314610e71578063bc31c1c114610ec8578063c04354ff14610f3b578063c2ed2b05146110b7578063c62c8ce714611256578063c7a4af15146112c7578063e724fcfa14611321578063eaccc9ae146113c2578063fde628a214611514575b600080fd5b34801561012e57600080fd5b506101376116b3565b604051808273ffffffffffffffffffffffffffffffffffffffff1673ffffffffffffffffffffffffffffffffffffffff16815260200191505060405180910390f35b34801561018557600080fd5b506102536004803603606081101561019c57600080fd5b81019080803590602001906401000000008111156101b957600080fd5b8201836020820111156101cb57600080fd5b803590602001918460018302840111640100000000831117156101ed57600080fd5b91908080601f016020809104026020016040519081016040528093929190818152602001838380828437600081840152601f19601f82011690508083019250505050505050919291929080359060200190929190803590602001909291905050506116d8565b604051808215151515815260200191505060405180910390f35b34801561027957600080fd5b506102bc6004803603602081101561029057600080fd5b81019080803573ffffffffffffffffffffffffffffffffffffffff16906020019092919050505061178e565b005b3480156102ca57600080fd5b5061030d600480360360208110156102e157600080fd5b81019080803573ffffffffffffffffffffffffffffffffffffffff1690602001909291905050506117e9565b005b34801561031b57600080fd5b506103486004803603602081101561033257600080fd5b810190808035906020019092919050505061182d565b6040518080602001806020018881526020018773ffffffffffffffffffffffffffffffffffffffff1673ffffffffffffffffffffffffffffffffffffffff1681526020018673ffffffffffffffffffffffffffffffffffffffff1673ffffffffffffffffffffffffffffffffffffffff1681526020018581526020018415151515815260200183810383528a818151815260200191508051906020019080838360005b838110156104065780820151818401526020810190506103eb565b50505050905090810190601f1680156104335780820380516001836020036101000a031916815260200191505b50838103825289818151815260200191508051906020019080838360005b8381101561046c578082015181840152602081019050610451565b50505050905090810190601f1680156104995780820380516001836020036101000a031916815260200191505b50995050505050505050505060405180910390f35b3480156104ba57600080fd5b5061050d600480360360408110156104d157600080fd5b81019080803573ffffffffffffffffffffffffffffffffffffffff169060200190929190803563ffffffff1690602001909291905050506119ec565b6040518080602001806020018881526020018773ffffffffffffffffffffffffffffffffffffffff1673ffffffffffffffffffffffffffffffffffffffff1681526020018673ffffffffffffffffffffffffffffffffffffffff1673ffffffffffffffffffffffffffffffffffffffff1681526020018581526020018415151515815260200183810383528a818151815260200191508051906020019080838360005b838110156105cb5780820151818401526020810190506105b0565b50505050905090810190601f1680156105f85780820380516001836020036101000a031916815260200191505b50838103825289818151815260200191508051906020019080838360005b83811015610631578082015181840152602081019050610616565b50505050905090810190601f16801561065e5780820380516001836020036101000a031916815260200191505b50995050505050505050505060405180910390f35b6107c36004803603604081101561068957600080fd5b81019080803590602001906401000000008111156106a657600080fd5b8201836020820111156106b857600080fd5b803590602001918460018302840111640100000000831117156106da57600080fd5b91908080601f016020809104026020016040519081016040528093929190818152602001838380828437600081840152601f19601f8201169050808301925050505050505091929192908035906020019064010000000081111561073d57600080fd5b82018360208201111561074f57600080fd5b8035906020019184600183028401116401000000008311171561077157600080fd5b91908080601f016020809104026020016040519081016040528093929190818152602001838380828437600081840152601f19601f820116905080830192505050505050509192919290505050611bb8565b005b61091f600480360360608110156107db57600080fd5b81019080803590602001906401000000008111156107f857600080fd5b82018360208201111561080a57600080fd5b8035906020019184600183028401116401000000008311171561082c57600080fd5b91908080601f016020809104026020016040519081016040528093929190818152602001838380828437600081840152601f19601f8201169050808301925050505050505091929192908035906020019064010000000081111561088f57600080fd5b8201836020820111156108a157600080fd5b803590602001918460018302840111640100000000831117156108c357600080fd5b91908080601f016020809104026020016040519081016040528093929190818152602001838380828437600081840152601f19601f82011690508083019250505050505050919291929080359060200190929190505050611e9b565b005b34801561092d57600080fd5b5061095a6004803603602081101561094457600080fd5b810190808035906020019092919050505061277a565b6040518080602001806020018573ffffffffffffffffffffffffffffffffffffffff1673ffffffffffffffffffffffffffffffffffffffff16815260200184151515158152602001838103835287818151815260200191508051906020019080838360005b838110156109da5780820151818401526020810190506109bf565b50505050905090810190601f168015610a075780820380516001836020036101000a031916815260200191505b50838103825286818151815260200191508051906020019080838360005b83811015610a40578082015181840152602081019050610a25565b50505050905090810190601f168015610a6d5780820380516001836020036101000a031916815260200191505b50965050505050505060405180910390f35b348015610a8b57600080fd5b50610ab860048036036020811015610aa257600080fd5b8101908080359060200190929190505050612916565b6040518080602001806020018881526020018773ffffffffffffffffffffffffffffffffffffffff1673ffffffffffffffffffffffffffffffffffffffff1681526020018673ffffffffffffffffffffffffffffffffffffffff1673ffffffffffffffffffffffffffffffffffffffff1681526020018581526020018415151515815260200183810383528a818151815260200191508051906020019080838360005b83811015610b76578082015181840152602081019050610b5b565b50505050905090810190601f168015610ba35780820380516001836020036101000a031916815260200191505b50838103825289818151815260200191508051906020019080838360005b83811015610bdc578082015181840152602081019050610bc1565b50505050905090810190601f168015610c095780820380516001836020036101000a031916815260200191505b50995050505050505050505060405180910390f35b348015610c2a57600080fd5b50610c6d60048036036020811015610c4157600080fd5b81019080803573ffffffffffffffffffffffffffffffffffffffff169060200190929190505050612ad5565b6040518080602001806020018573ffffffffffffffffffffffffffffffffffffffff1673ffffffffffffffffffffffffffffffffffffffff16815260200184151515158152602001838103835287818151815260200191508051906020019080838360005b83811015610ced578082015181840152602081019050610cd2565b50505050905090810190601f168015610d1a5780820380516001836020036101000a031916815260200191505b50838103825286818151815260200191508051906020019080838360005b83811015610d53578082015181840152602081019050610d38565b50505050905090810190601f168015610d805780820380516001836020036101000a031916815260200191505b50965050505050505060405180910390f35b610e5b60048036036040811015610da857600080fd5b8101908080359060200190640100000000811115610dc557600080fd5b820183602082011115610dd757600080fd5b80359060200191846001830284011164010000000083111715610df957600080fd5b91908080601f016020809104026020016040519081016040528093929190818152602001838380828437600081840152601f19601f820116905080830192505050505050509192919290803563ffffffff169060200190929190505050612c62565b6040518082815260200191505060405180910390f35b348015610e7d57600080fd5b50610e86613c55565b604051808273ffffffffffffffffffffffffffffffffffffffff1673ffffffffffffffffffffffffffffffffffffffff16815260200191505060405180910390f35b348015610ed457600080fd5b50610f0160048036036020811015610eeb57600080fd5b8101908080359060200190929190505050613c7b565b60405180826fffffffffffffffffffffffffffffffff166fffffffffffffffffffffffffffffffff16815260200191505060405180910390f35b6110b560048036036080811015610f5157600080fd5b8101908080359060200190640100000000811115610f6e57600080fd5b820183602082011115610f8057600080fd5b80359060200191846001830284011164010000000083111715610fa257600080fd5b91908080601f016020809104026020016040519081016040528093929190818152602001838380828437600081840152601f19601f8201169050808301925050505050505091929192908035906020019064010000000081111561100557600080fd5b82018360208201111561101757600080fd5b8035906020019184600183028401116401000000008311171561103957600080fd5b91908080601f016020809104026020016040519081016040528093929190818152602001838380828437600081840152601f19601f82011690508083019250505050505050919291929080359060200190929190803573ffffffffffffffffffffffffffffffffffffffff169060200190929190505050613cc0565b005b3480156110c357600080fd5b506110f0600480360360208110156110da57600080fd5b8101908080359060200190929190505050614337565b6040518080602001806020018881526020018773ffffffffffffffffffffffffffffffffffffffff1673ffffffffffffffffffffffffffffffffffffffff1681526020018673ffffffffffffffffffffffffffffffffffffffff1673ffffffffffffffffffffffffffffffffffffffff1681526020018581526020018415151515815260200183810383528a818151815260200191508051906020019080838360005b838110156111ae578082015181840152602081019050611193565b50505050905090810190601f1680156111db5780820380516001836020036101000a031916815260200191505b50838103825289818151815260200191508051906020019080838360005b838110156112145780820151818401526020810190506111f9565b50505050905090810190601f1680156112415780820380516001836020036101000a031916815260200191505b50995050505050505050505060405180910390f35b34801561126257600080fd5b506112a56004803603602081101561127957600080fd5b81019080803573ffffffffffffffffffffffffffffffffffffffff169060200190929190505050614505565b604051808263ffffffff1663ffffffff16815260200191505060405180910390f35b3480156112d357600080fd5b5061131f600480360360408110156112ea57600080fd5b81019080803560ff16906020019092919080356fffffffffffffffffffffffffffffffff169060200190929190505050614528565b005b34801561132d57600080fd5b506113c06004803603608081101561134457600080fd5b8101908080356fffffffffffffffffffffffffffffffff16906020019092919080356fffffffffffffffffffffffffffffffff16906020019092919080356fffffffffffffffffffffffffffffffff16906020019092919080356fffffffffffffffffffffffffffffffff169060200190929190505050614594565b005b611512600480360360408110156113d857600080fd5b81019080803590602001906401000000008111156113f557600080fd5b82018360208201111561140757600080fd5b8035906020019184600183028401116401000000008311171561142957600080fd5b91908080601f016020809104026020016040519081016040528093929190818152602001838380828437600081840152601f19601f8201169050808301925050505050505091929192908035906020019064010000000081111561148c57600080fd5b82018360208201111561149e57600080fd5b803590602001918460018302840111640100000000831117156114c057600080fd5b91908080601f016020809104026020016040519081016040528093929190818152602001838380828437600081840152601f19601f82011690508083019250505050505050919291929050505061477c565b005b34801561152057600080fd5b5061154d6004803603602081101561153757600080fd5b8101908080359060200190929190505050614a74565b6040518080602001806020018881526020018773ffffffffffffffffffffffffffffffffffffffff1673ffffffffffffffffffffffffffffffffffffffff1681526020018673ffffffffffffffffffffffffffffffffffffffff1673ffffffffffffffffffffffffffffffffffffffff1681526020018581526020018415151515815260200183810383528a818151815260200191508051906020019080838360005b8381101561160b5780820151818401526020810190506115f0565b50505050905090810190601f1680156116385780820380516001836020036101000a031916815260200191505b50838103825289818151815260200191508051906020019080838360005b83811015611671578082015181840152602081019050611656565b50505050905090810190601f16801561169e5780820380516001836020036101000a031916815260200191505b50995050505050505050505060405180910390f35b6000809054906101000a900473ffffffffffffffffffffffffffffffffffffffff1681565b60008084846040516020018083805190602001908083835b60208310151561171557805182526020820191506020810190506020830392506116f0565b6001836020036101000a038019825116818451168082178552505050505050905001828152602001925050506040516020818303038152906040528051906020012090508260086000838152602001908152602001600020600501541415611781576001915050611787565b60009150505b9392505050565b6001600660008373ffffffffffffffffffffffffffffffffffffffff1673ffffffffffffffffffffffffffffffffffffffff16815260200190815260200160002060006101000a81548160ff02191690831515021790555050565b80600160006101000a81548173ffffffffffffffffffffffffffffffffffffffff021916908373ffffffffffffffffffffffffffffffffffffffff16021790555050565b6007602052806000526040600020600091509050806000018054600181600116156101000203166002900480601f0160208091040260200160405190810160405280929190818152602001828054600181600116156101000203166002900480156118d95780601f106118ae576101008083540402835291602001916118d9565b820191906000526020600020905b8154815290600101906020018083116118bc57829003601f168201915b505050505090806001018054600181600116156101000203166002900480601f0160208091040260200160405190810160405280929190818152602001828054600181600116156101000203166002900480156119775780601f1061194c57610100808354040283529160200191611977565b820191906000526020600020905b81548152906001019060200180831161195a57829003601f168201915b5050505050908060020154908060030160009054906101000a900473ffffffffffffffffffffffffffffffffffffffff16908060040160009054906101000a900473ffffffffffffffffffffffffffffffffffffffff16908060050154908060060160009054906101000a900460ff16905087565b600a60205281600052604060002060205280600052604060002060009150915050806000018054600181600116156101000203166002900480601f016020809104026020016040519081016040528092919081815260200182805460018160011615610100020316600290048015611aa55780601f10611a7a57610100808354040283529160200191611aa5565b820191906000526020600020905b815481529060010190602001808311611a8857829003601f168201915b505050505090806001018054600181600116156101000203166002900480601f016020809104026020016040519081016040528092919081815260200182805460018160011615610100020316600290048015611b435780601f10611b1857610100808354040283529160200191611b43565b820191906000526020600020905b815481529060010190602001808311611b2657829003601f168201915b5050505050908060020154908060030160009054906101000a900473ffffffffffffffffffffffffffffffffffffffff16908060040160009054906101000a900473ffffffffffffffffffffffffffffffffffffffff16908060050154908060060160009054906101000a900460ff16905087565b60026003815481101515611bc857fe5b90600052602060002090600291828204019190066010029054906101000a90046fffffffffffffffffffffffffffffffff166fffffffffffffffffffffffffffffffff1634141515611c1957600080fd5b600960003373ffffffffffffffffffffffffffffffffffffffff1673ffffffffffffffffffffffffffffffffffffffff16815260200190815260200160002060020160149054906101000a900460ff161515611c7457600080fd5b600160009054906101000a900473ffffffffffffffffffffffffffffffffffffffff1673ffffffffffffffffffffffffffffffffffffffff166108fc349081150290604051600060405180830381858888f19350505050158015611cdc573d6000803e3d6000fd5b5081600960003373ffffffffffffffffffffffffffffffffffffffff1673ffffffffffffffffffffffffffffffffffffffff1681526020019081526020016000206000019080519060200190611d33929190614c42565b5080600960003373ffffffffffffffffffffffffffffffffffffffff1673ffffffffffffffffffffffffffffffffffffffff1681526020019081526020016000206001019080519060200190611d8a929190614c42565b5060056080604051908101604052808481526020018381526020013373ffffffffffffffffffffffffffffffffffffffff16815260200160011515815250908060018154018082558091505090600182039060005260206000209060030201600090919290919091506000820151816000019080519060200190611e0f929190614cc2565b506020820151816001019080519060200190611e2c929190614cc2565b5060408201518160020160006101000a81548173ffffffffffffffffffffffffffffffffffffffff021916908373ffffffffffffffffffffffffffffffffffffffff16021790555060608201518160020160146101000a81548160ff0219169083151502179055505050505050565b60026001815481101515611eab57fe5b90600052602060002090600291828204019190066010029054906101000a90046fffffffffffffffffffffffffffffffff166fffffffffffffffffffffffffffffffff1634141515611efc57600080fd5b600160009054906101000a900473ffffffffffffffffffffffffffffffffffffffff1673ffffffffffffffffffffffffffffffffffffffff166108fc349081150290604051600060405180830381858888f19350505050158015611f64573d6000803e3d6000fd5b50600083600d856040518082805190602001908083835b602083101515611fa05780518252602082019150602081019050602083039250611f7b565b6001836020036101000a038019825116818451168082178552505050505050905001915050908152602001604051809103902060009054906101000a900463ffffffff166040516020018083805190602001908083835b60208310151561201c5780518252602082019150602081019050602083039250611ff7565b6001836020036101000a0380198251168184511680821785525050505050509050018263ffffffff1663ffffffff167c01000000000000000000000000000000000000000000000000000000000281526004019250505060405160208183030381529060405280519060200120905060e0604051908101604052808581526020018481526020014281526020013373ffffffffffffffffffffffffffffffffffffffff168152602001600073ffffffffffffffffffffffffffffffffffffffff1681526020018381526020016001151581525060086000838152602001908152602001600020600082015181600001908051906020019061211e929190614cc2565b50602082015181600101908051906020019061213b929190614cc2565b506040820151816002015560608201518160030160006101000a81548173ffffffffffffffffffffffffffffffffffffffff021916908373ffffffffffffffffffffffffffffffffffffffff16021790555060808201518160040160006101000a81548173ffffffffffffffffffffffffffffffffffffffff021916908373ffffffffffffffffffffffffffffffffffffffff16021790555060a0820151816005015560c08201518160060160006101000a81548160ff0219169083151502179055509050600a60003373ffffffffffffffffffffffffffffffffffffffff1673ffffffffffffffffffffffffffffffffffffffff1681526020019081526020016000206000600b60003373ffffffffffffffffffffffffffffffffffffffff1673ffffffffffffffffffffffffffffffffffffffff16815260200190815260200160002060009054906101000a900463ffffffff1663ffffffff1663ffffffff168152602001908152602001600020600082018160000190805460018160011615610100020316600290046122d2929190614d42565b50600182018160010190805460018160011615610100020316600290046122fa929190614d42565b50600282015481600201556003820160009054906101000a900473ffffffffffffffffffffffffffffffffffffffff168160030160006101000a81548173ffffffffffffffffffffffffffffffffffffffff021916908373ffffffffffffffffffffffffffffffffffffffff1602179055506004820160009054906101000a900473ffffffffffffffffffffffffffffffffffffffff168160040160006101000a81548173ffffffffffffffffffffffffffffffffffffffff021916908373ffffffffffffffffffffffffffffffffffffffff160217905550600582015481600501556006820160009054906101000a900460ff168160060160006101000a81548160ff021916908315150217905550905050600460e0604051908101604052808681526020018581526020014281526020013373ffffffffffffffffffffffffffffffffffffffff168152602001600073ffffffffffffffffffffffffffffffffffffffff168152602001848152602001600115158152509080600181540180825580915050906001820390600052602060002090600702016000909192909190915060008201518160000190805190602001906124ba929190614cc2565b5060208201518160010190805190602001906124d7929190614cc2565b506040820151816002015560608201518160030160006101000a81548173ffffffffffffffffffffffffffffffffffffffff021916908373ffffffffffffffffffffffffffffffffffffffff16021790555060808201518160040160006101000a81548173ffffffffffffffffffffffffffffffffffffffff021916908373ffffffffffffffffffffffffffffffffffffffff16021790555060a0820151816005015560c08201518160060160006101000a81548160ff021916908315150217905550505050600d846040518082805190602001908083835b6020831015156125d557805182526020820191506020810190506020830392506125b0565b6001836020036101000a0380198251168184511680821785525050505050509050019150509081526020016040518091039020600081819054906101000a900463ffffffff168092919060010191906101000a81548163ffffffff021916908363ffffffff16021790555050600b60003373ffffffffffffffffffffffffffffffffffffffff1673ffffffffffffffffffffffffffffffffffffffff168152602001908152602001600020600081819054906101000a900463ffffffff168092919060010191906101000a81548163ffffffff021916908363ffffffff160217905550507f69ec0aa9307608d84ae1f79f7498648be1f461e11763151ad9ace72de2e8358b6001600d866040518082805190602001908083835b60208310151561271457805182526020820191506020810190506020830392506126ef565b6001836020036101000a038019825116818451168082178552505050505050905001915050908152602001604051809103902060009054906101000a900463ffffffff1603604051808263ffffffff16815260200191505060405180910390a150505050565b60058181548110151561278957fe5b9060005260206000209060030201600091509050806000018054600181600116156101000203166002900480601f0160208091040260200160405190810160405280929190818152602001828054600181600116156101000203166002900480156128355780601f1061280a57610100808354040283529160200191612835565b820191906000526020600020905b81548152906001019060200180831161281857829003601f168201915b505050505090806001018054600181600116156101000203166002900480601f0160208091040260200160405190810160405280929190818152602001828054600181600116156101000203166002900480156128d35780601f106128a8576101008083540402835291602001916128d3565b820191906000526020600020905b8154815290600101906020018083116128b657829003601f168201915b5050505050908060020160009054906101000a900473ffffffffffffffffffffffffffffffffffffffff16908060020160149054906101000a900460ff16905084565b6008602052806000526040600020600091509050806000018054600181600116156101000203166002900480601f0160208091040260200160405190810160405280929190818152602001828054600181600116156101000203166002900480156129c25780601f10612997576101008083540402835291602001916129c2565b820191906000526020600020905b8154815290600101906020018083116129a557829003601f168201915b505050505090806001018054600181600116156101000203166002900480601f016020809104026020016040519081016040528092919081815260200182805460018160011615610100020316600290048015612a605780601f10612a3557610100808354040283529160200191612a60565b820191906000526020600020905b815481529060010190602001808311612a4357829003601f168201915b5050505050908060020154908060030160009054906101000a900473ffffffffffffffffffffffffffffffffffffffff16908060040160009054906101000a900473ffffffffffffffffffffffffffffffffffffffff16908060050154908060060160009054906101000a900460ff16905087565b6009602052806000526040600020600091509050806000018054600181600116156101000203166002900480601f016020809104026020016040519081016040528092919081815260200182805460018160011615610100020316600290048015612b815780601f10612b5657610100808354040283529160200191612b81565b820191906000526020600020905b815481529060010190602001808311612b6457829003601f168201915b505050505090806001018054600181600116156101000203166002900480601f016020809104026020016040519081016040528092919081815260200182805460018160011615610100020316600290048015612c1f5780601f10612bf457610100808354040283529160200191612c1f565b820191906000526020600020905b815481529060010190602001808311612c0257829003601f168201915b5050505050908060020160009054906101000a900473ffffffffffffffffffffffffffffffffffffffff16908060020160149054906101000a900460ff16905084565b60006002806002815481101515612c7557fe5b90600052602060002090600291828204019190066010029054906101000a90046fffffffffffffffffffffffffffffffff166fffffffffffffffffffffffffffffffff16811515612cc257fe5b046fffffffffffffffffffffffffffffffff1634141515612ce257600080fd5b600160009054906101000a900473ffffffffffffffffffffffffffffffffffffffff1673ffffffffffffffffffffffffffffffffffffffff166108fc349081150290604051600060405180830381858888f19350505050158015612d4a573d6000803e3d6000fd5b50600083836040516020018083805190602001908083835b602083101515612d875780518252602082019150602081019050602083039250612d62565b6001836020036101000a0380198251168184511680821785525050505050509050018263ffffffff1663ffffffff167c010000000000000000000000000000000000000000000000000000000002815260040192505050604051602081830303815290604052805190602001209050600084600d866040518082805190602001908083835b602083101515612e315780518252602082019150602081019050602083039250612e0c565b6001836020036101000a038019825116818451168082178552505050505050905001915050908152602001604051809103902060009054906101000a900463ffffffff166040516020018083805190602001908083835b602083101515612ead5780518252602082019150602081019050602083039250612e88565b6001836020036101000a0380198251168184511680821785525050505050509050018263ffffffff1663ffffffff167c01000000000000000000000000000000000000000000000000000000000281526004019250505060405160208183030381529060405280519060200120905060006007600084815260200190815260200160002060040160009054906101000a900473ffffffffffffffffffffffffffffffffffffffff1690503373ffffffffffffffffffffffffffffffffffffffff168173ffffffffffffffffffffffffffffffffffffffff16141515612f9157600080fd5b60e060405190810160405280600760008681526020019081526020016000206000018054600181600116156101000203166002900480601f0160208091040260200160405190810160405280929190818152602001828054600181600116156101000203166002900480156130475780601f1061301c57610100808354040283529160200191613047565b820191906000526020600020905b81548152906001019060200180831161302a57829003601f168201915b50505050508152602001600760008681526020019081526020016000206001018054600181600116156101000203166002900480601f0160208091040260200160405190810160405280929190818152602001828054600181600116156101000203166002900480156130fb5780601f106130d0576101008083540402835291602001916130fb565b820191906000526020600020905b8154815290600101906020018083116130de57829003601f168201915b505050505081526020014281526020016007600086815260200190815260200160002060030160009054906101000a900473ffffffffffffffffffffffffffffffffffffffff1673ffffffffffffffffffffffffffffffffffffffff1681526020018273ffffffffffffffffffffffffffffffffffffffff16815260200160076000868152602001908152602001600020600501548152602001600115158152506008600084815260200190815260200160002060008201518160000190805190602001906131cb929190614cc2565b5060208201518160010190805190602001906131e8929190614cc2565b506040820151816002015560608201518160030160006101000a81548173ffffffffffffffffffffffffffffffffffffffff021916908373ffffffffffffffffffffffffffffffffffffffff16021790555060808201518160040160006101000a81548173ffffffffffffffffffffffffffffffffffffffff021916908373ffffffffffffffffffffffffffffffffffffffff16021790555060a0820151816005015560c08201518160060160006101000a81548160ff0219169083151502179055509050600a60003373ffffffffffffffffffffffffffffffffffffffff1673ffffffffffffffffffffffffffffffffffffffff1681526020019081526020016000206000600b60003373ffffffffffffffffffffffffffffffffffffffff1673ffffffffffffffffffffffffffffffffffffffff16815260200190815260200160002060009054906101000a900463ffffffff1663ffffffff1663ffffffff1681526020019081526020016000206000820181600001908054600181600116156101000203166002900461337f929190614d42565b50600182018160010190805460018160011615610100020316600290046133a7929190614d42565b50600282015481600201556003820160009054906101000a900473ffffffffffffffffffffffffffffffffffffffff168160030160006101000a81548173ffffffffffffffffffffffffffffffffffffffff021916908373ffffffffffffffffffffffffffffffffffffffff1602179055506004820160009054906101000a900473ffffffffffffffffffffffffffffffffffffffff168160040160006101000a81548173ffffffffffffffffffffffffffffffffffffffff021916908373ffffffffffffffffffffffffffffffffffffffff160217905550600582015481600501556006820160009054906101000a900460ff168160060160006101000a81548160ff0219169083151502179055509050600a60008373ffffffffffffffffffffffffffffffffffffffff1673ffffffffffffffffffffffffffffffffffffffff1681526020019081526020016000206000600b60008573ffffffffffffffffffffffffffffffffffffffff1673ffffffffffffffffffffffffffffffffffffffff16815260200190815260200160002060009054906101000a900463ffffffff1663ffffffff1663ffffffff1681526020019081526020016000206000820181600001908054600181600116156101000203166002900461358b929190614d42565b50600182018160010190805460018160011615610100020316600290046135b3929190614d42565b50600282015481600201556003820160009054906101000a900473ffffffffffffffffffffffffffffffffffffffff168160030160006101000a81548173ffffffffffffffffffffffffffffffffffffffff021916908373ffffffffffffffffffffffffffffffffffffffff1602179055506004820160009054906101000a900473ffffffffffffffffffffffffffffffffffffffff168160040160006101000a81548173ffffffffffffffffffffffffffffffffffffffff021916908373ffffffffffffffffffffffffffffffffffffffff160217905550600582015481600501556006820160009054906101000a900460ff168160060160006101000a81548160ff021916908315150217905550905050600460e060405190810160405280600760008781526020019081526020016000206000018054600181600116156101000203166002900480601f01602080910402602001604051908101604052809291908181526020018280546001816001161561010002031660029004801561377e5780601f106137535761010080835404028352916020019161377e565b820191906000526020600020905b81548152906001019060200180831161376157829003601f168201915b50505050508152602001600760008781526020019081526020016000206001018054600181600116156101000203166002900480601f0160208091040260200160405190810160405280929190818152602001828054600181600116156101000203166002900480156138325780601f1061380757610100808354040283529160200191613832565b820191906000526020600020905b81548152906001019060200180831161381557829003601f168201915b505050505081526020014281526020016007600087815260200190815260200160002060030160009054906101000a900473ffffffffffffffffffffffffffffffffffffffff1673ffffffffffffffffffffffffffffffffffffffff1681526020018373ffffffffffffffffffffffffffffffffffffffff168152602001600760008781526020019081526020016000206005015481526020016001151581525090806001815401808255809150509060018203906000526020600020906007020160009091929091909150600082015181600001908051906020019061391a929190614cc2565b506020820151816001019080519060200190613937929190614cc2565b506040820151816002015560608201518160030160006101000a81548173ffffffffffffffffffffffffffffffffffffffff021916908373ffffffffffffffffffffffffffffffffffffffff16021790555060808201518160040160006101000a81548173ffffffffffffffffffffffffffffffffffffffff021916908373ffffffffffffffffffffffffffffffffffffffff16021790555060a0820151816005015560c08201518160060160006101000a81548160ff021916908315150217905550505050600d866040518082805190602001908083835b602083101515613a355780518252602082019150602081019050602083039250613a10565b6001836020036101000a0380198251168184511680821785525050505050509050019150509081526020016040518091039020600081819054906101000a900463ffffffff168092919060010191906101000a81548163ffffffff021916908363ffffffff16021790555050600b60008273ffffffffffffffffffffffffffffffffffffffff1673ffffffffffffffffffffffffffffffffffffffff168152602001908152602001600020600081819054906101000a900463ffffffff168092919060010191906101000a81548163ffffffff021916908363ffffffff16021790555050600b60003373ffffffffffffffffffffffffffffffffffffffff1673ffffffffffffffffffffffffffffffffffffffff168152602001908152602001600020600081819054906101000a900463ffffffff168092919060010191906101000a81548163ffffffff021916908363ffffffff160217905550507f69ec0aa9307608d84ae1f79f7498648be1f461e11763151ad9ace72de2e8358b6001600d886040518082805190602001908083835b602083101515613bec5780518252602082019150602081019050602083039250613bc7565b6001836020036101000a038019825116818451168082178552505050505050905001915050908152602001604051809103902060009054906101000a900463ffffffff1603604051808263ffffffff16815260200191505060405180910390a150505092915050565b600160009054906101000a900473ffffffffffffffffffffffffffffffffffffffff1681565b600281815481101515613c8a57fe5b9060005260206000209060029182820401919006601002915054906101000a90046fffffffffffffffffffffffffffffffff1681565b6002806002815481101515613cd157fe5b90600052602060002090600291828204019190066010029054906101000a90046fffffffffffffffffffffffffffffffff166fffffffffffffffffffffffffffffffff16811515613d1e57fe5b046fffffffffffffffffffffffffffffffff1634141515613d3e57600080fd5b600160009054906101000a900473ffffffffffffffffffffffffffffffffffffffff1673ffffffffffffffffffffffffffffffffffffffff166108fc349081150290604051600060405180830381858888f19350505050158015613da6573d6000803e3d6000fd5b50600084600c866040518082805190602001908083835b602083101515613de25780518252602082019150602081019050602083039250613dbd565b6001836020036101000a038019825116818451168082178552505050505050905001915050908152602001604051809103902060009054906101000a900463ffffffff166040516020018083805190602001908083835b602083101515613e5e5780518252602082019150602081019050602083039250613e39565b6001836020036101000a0380198251168184511680821785525050505050509050018263ffffffff1663ffffffff167c01000000000000000000000000000000000000000000000000000000000281526004019250505060405160208183030381529060405280519060200120905060e0604051908101604052808681526020018581526020014281526020013373ffffffffffffffffffffffffffffffffffffffff1681526020018373ffffffffffffffffffffffffffffffffffffffff16815260200184815260200160011515815250600760008381526020019081526020016000206000820151816000019080519060200190613f5f929190614cc2565b506020820151816001019080519060200190613f7c929190614cc2565b506040820151816002015560608201518160030160006101000a81548173ffffffffffffffffffffffffffffffffffffffff021916908373ffffffffffffffffffffffffffffffffffffffff16021790555060808201518160040160006101000a81548173ffffffffffffffffffffffffffffffffffffffff021916908373ffffffffffffffffffffffffffffffffffffffff16021790555060a0820151816005015560c08201518160060160006101000a81548160ff021916908315150217905550905050600360e0604051908101604052808781526020018681526020014281526020013373ffffffffffffffffffffffffffffffffffffffff1681526020018473ffffffffffffffffffffffffffffffffffffffff168152602001858152602001600115158152509080600181540180825580915050906001820390600052602060002090600702016000909192909190915060008201518160000190805190602001906140ee929190614cc2565b50602082015181600101908051906020019061410b929190614cc2565b506040820151816002015560608201518160030160006101000a81548173ffffffffffffffffffffffffffffffffffffffff021916908373ffffffffffffffffffffffffffffffffffffffff16021790555060808201518160040160006101000a81548173ffffffffffffffffffffffffffffffffffffffff021916908373ffffffffffffffffffffffffffffffffffffffff16021790555060a0820151816005015560c08201518160060160006101000a81548160ff021916908315150217905550505050600c856040518082805190602001908083835b60208310151561420957805182526020820191506020810190506020830392506141e4565b6001836020036101000a0380198251168184511680821785525050505050509050019150509081526020016040518091039020600081819054906101000a900463ffffffff168092919060010191906101000a81548163ffffffff021916908363ffffffff160217905550507f69ec0aa9307608d84ae1f79f7498648be1f461e11763151ad9ace72de2e8358b6001600c876040518082805190602001908083835b6020831015156142d057805182526020820191506020810190506020830392506142ab565b6001836020036101000a038019825116818451168082178552505050505050905001915050908152602001604051809103902060009054906101000a900463ffffffff1603604051808263ffffffff16815260200191505060405180910390a15050505050565b60048181548110151561434657fe5b9060005260206000209060070201600091509050806000018054600181600116156101000203166002900480601f0160208091040260200160405190810160405280929190818152602001828054600181600116156101000203166002900480156143f25780601f106143c7576101008083540402835291602001916143f2565b820191906000526020600020905b8154815290600101906020018083116143d557829003601f168201915b505050505090806001018054600181600116156101000203166002900480601f0160208091040260200160405190810160405280929190818152602001828054600181600116156101000203166002900480156144905780601f1061446557610100808354040283529160200191614490565b820191906000526020600020905b81548152906001019060200180831161447357829003601f168201915b5050505050908060020154908060030160009054906101000a900473ffffffffffffffffffffffffffffffffffffffff16908060040160009054906101000a900473ffffffffffffffffffffffffffffffffffffffff16908060050154908060060160009054906101000a900460ff16905087565b600b6020528060005260406000206000915054906101000a900463ffffffff1681565b670de0b6b3a7640000810260028360ff1681548110151561454557fe5b90600052602060002090600291828204019190066010026101000a8154816fffffffffffffffffffffffffffffffff02191690836fffffffffffffffffffffffffffffffff1602179055505050565b6000670de0b6b3a7640000905060028167ffffffffffffffff168602908060018154018082558091505090600182039060005260206000209060029182820401919006601002909192909190916101000a8154816fffffffffffffffffffffffffffffffff02191690836fffffffffffffffffffffffffffffffff1602179055505060028167ffffffffffffffff168502908060018154018082558091505090600182039060005260206000209060029182820401919006601002909192909190916101000a8154816fffffffffffffffffffffffffffffffff02191690836fffffffffffffffffffffffffffffffff1602179055505060028167ffffffffffffffff168402908060018154018082558091505090600182039060005260206000209060029182820401919006601002909192909190916101000a8154816fffffffffffffffffffffffffffffffff02191690836fffffffffffffffffffffffffffffffff1602179055505060028167ffffffffffffffff168302908060018154018082558091505090600182039060005260206000209060029182820401919006601002909192909190916101000a8154816fffffffffffffffffffffffffffffffff02191690836fffffffffffffffffffffffffffffffff160217905550505050505050565b6002600181548110151561478c57fe5b90600052602060002090600291828204019190066010029054906101000a90046fffffffffffffffffffffffffffffffff166fffffffffffffffffffffffffffffffff16341415156147dd57600080fd5b600160009054906101000a900473ffffffffffffffffffffffffffffffffffffffff1673ffffffffffffffffffffffffffffffffffffffff166108fc349081150290604051600060405180830381858888f19350505050158015614845573d6000803e3d6000fd5b506080604051908101604052808381526020018281526020013373ffffffffffffffffffffffffffffffffffffffff16815260200160011515815250600960003373ffffffffffffffffffffffffffffffffffffffff1673ffffffffffffffffffffffffffffffffffffffff16815260200190815260200160002060008201518160000190805190602001906148dc929190614cc2565b5060208201518160010190805190602001906148f9929190614cc2565b5060408201518160020160006101000a81548173ffffffffffffffffffffffffffffffffffffffff021916908373ffffffffffffffffffffffffffffffffffffffff16021790555060608201518160020160146101000a81548160ff02191690831515021790555090505060056080604051908101604052808481526020018381526020013373ffffffffffffffffffffffffffffffffffffffff168152602001600115158152509080600181540180825580915050906001820390600052602060002090600302016000909192909190915060008201518160000190805190602001906149e8929190614cc2565b506020820151816001019080519060200190614a05929190614cc2565b5060408201518160020160006101000a81548173ffffffffffffffffffffffffffffffffffffffff021916908373ffffffffffffffffffffffffffffffffffffffff16021790555060608201518160020160146101000a81548160ff0219169083151502179055505050505050565b600381815481101515614a8357fe5b9060005260206000209060070201600091509050806000018054600181600116156101000203166002900480601f016020809104026020016040519081016040528092919081815260200182805460018160011615610100020316600290048015614b2f5780601f10614b0457610100808354040283529160200191614b2f565b820191906000526020600020905b815481529060010190602001808311614b1257829003601f168201915b505050505090806001018054600181600116156101000203166002900480601f016020809104026020016040519081016040528092919081815260200182805460018160011615610100020316600290048015614bcd5780601f10614ba257610100808354040283529160200191614bcd565b820191906000526020600020905b815481529060010190602001808311614bb057829003601f168201915b5050505050908060020154908060030160009054906101000a900473ffffffffffffffffffffffffffffffffffffffff16908060040160009054906101000a900473ffffffffffffffffffffffffffffffffffffffff16908060050154908060060160009054906101000a900460ff16905087565b828054600181600116156101000203166002900490600052602060002090601f016020900481019282601f10614c8357805160ff1916838001178555614cb1565b82800160010185558215614cb1579182015b82811115614cb0578251825591602001919060010190614c95565b5b509050614cbe9190614dc9565b5090565b828054600181600116156101000203166002900490600052602060002090601f016020900481019282601f10614d0357805160ff1916838001178555614d31565b82800160010185558215614d31579182015b82811115614d30578251825591602001919060010190614d15565b5b509050614d3e9190614dc9565b5090565b828054600181600116156101000203166002900490600052602060002090601f016020900481019282601f10614d7b5780548555614db8565b82800160010185558215614db857600052602060002091601f016020900482015b82811115614db7578254825591600101919060010190614d9c565b5b509050614dc59190614dc9565b5090565b614deb91905b80821115614de7576000816000905550600101614dcf565b5090565b9056fea165627a7a723058206254ee9b049fb309a04707e0af282c7a7d68f0034a2a21b1b26f46948599a6760029",
  "source": "pragma solidity ^ 0.5 .0;\n\n/*\ncontract Owners {\n\n    function getOwners(address _ad) public view returns(bool) {}\n\n}\n\nUncomment to publish\n\n*/\n\ncontract Storage {\n\n      //  Owners ownerContract;  uncomment to publish\n\n        modifier onlyOwners() {\n                // require(ownerContract.getOwners(msg.sender)); uncomment to publish\n                _;\n        }\n\n\n\n        struct Document {\n                string name;\n                string metadata;\n                uint timestamp;\n                address registrant;\n                address signee;\n                bytes32 hash;\n                bool isEntity;\n        }\n\n        struct Registrant {\n                string name;\n                string description;\n                address user;\n                bool isEntity;\n        }\n\n\n        address public creator;\n        address payable public current;\n\n        uint128[] public prices;\n\n        Document[] public temporaryDocs;\n        Document[] public documents;\n        Registrant[] public registrants;\n\n        mapping(address => bool) owners;\n\n        mapping(bytes32 => Document) public temporaryRegistry;\n        mapping(bytes32 => Document) public registry;\n\n        mapping(address => Registrant) public verifiedAddress;\n\n        mapping(address => mapping(uint32 => Document)) public userDocs;\n        mapping(address => uint32) public docsPerUser;\n\n        mapping(string => uint32) temporaryIndex;\n        mapping(string => uint32) nameIndex;\n\n        bool ownersSet;\n\n        event DocumentIndex(uint index);\n}\n\n\ncontract DocumentRegistration is Storage {\n\n\n/*\n        function setOwnerContract(address _ownerContract) public {\n                require(ownersSet == false);\n            //    ownerContract = Owners(_ownerContract);  uncomment to publish\n                ownersSet = true;\n        }\n\n*/\n        function setPrices(uint128 _price1, uint128 _price2, uint128 _price3, uint128 _price4) public onlyOwners {\n                uint64 p = 1 ether;\n                prices.push(_price1 * p);\n                prices.push(_price2 * p);\n                prices.push(_price3 * p);\n                prices.push(_price4 * p);\n        }\n\n        function setPrice(uint8 _index, uint128 _price) public onlyOwners {\n                prices[_index] = _price * 1 ether;\n        }\n\n        function setOwner(address _owner) public onlyOwners {\n                owners[_owner] = true;\n        }\n\n        function setCurrent(address payable _current) public onlyOwners {\n                current = _current;\n        }\n\n        function registerDocument(\n                string memory _name,\n                string memory _metadata,\n                bytes32 _fileHash\n        )\n        public\n        payable {\n                require(msg.value == prices[1]);\n                current.transfer(msg.value);\n                bytes32 hash = keccak256(abi.encodePacked(_name, nameIndex[_name]));\n                userDocs[msg.sender][docsPerUser[msg.sender]] = registry[hash] = Document(\n                        _name,\n                        _metadata,\n                        block.timestamp,\n                        msg.sender,\n                        address(0),\n                        _fileHash,\n                        true\n                );\n                documents.push(Document(\n                        _name,\n                        _metadata,\n                        block.timestamp,\n                        msg.sender,\n                        address(0),\n                        _fileHash,\n                        true\n                ));\n                nameIndex[_name]++;\n                docsPerUser[msg.sender]++;\n                emit DocumentIndex(nameIndex[_name] - 1);\n        }\n\n        function registerMultiSig(\n                string memory _name,\n                string memory _metadata,\n                bytes32 _fileHash,\n                address _signee\n        )\n        public\n        payable {\n                require(msg.value == prices[2] / 2);\n                current.transfer(msg.value);\n                bytes32 hash = keccak256(abi.encodePacked(_name, temporaryIndex[_name])); // temporaryIndex is separate from nameIndex\n                temporaryRegistry[hash] = Document(\n                        _name,\n                        _metadata,\n                        block.timestamp,\n                        msg.sender,\n                        _signee,\n                        _fileHash,\n                        true\n                );\n                temporaryDocs.push(Document(\n                        _name,\n                        _metadata,\n                        block.timestamp,\n                        msg.sender,\n                        _signee,\n                        _fileHash,\n                        true\n                ));\n                temporaryIndex[_name]++; // Allow temporary registrations under the same name\n                emit DocumentIndex(temporaryIndex[_name] - 1);\n        }\n\n        function signDocument(string memory _name, uint32 _temporaryIndex) public payable returns(uint) {\n                require(msg.value == prices[2] / 2);\n                current.transfer(msg.value);\n                bytes32 temporaryHash = keccak256(abi.encodePacked(_name, _temporaryIndex));\n                bytes32 permanentHash = keccak256(abi.encodePacked(_name, nameIndex[_name]));\n                address signee = temporaryRegistry[temporaryHash].signee;\n                require(signee == msg.sender);\n                userDocs[signee][docsPerUser[signee]] = userDocs[msg.sender][docsPerUser[msg.sender]] = registry[permanentHash] = Document(\n                        temporaryRegistry[temporaryHash].name,\n                        temporaryRegistry[temporaryHash].metadata,\n                        block.timestamp,\n                        temporaryRegistry[temporaryHash].registrant,\n                        signee,\n                        temporaryRegistry[temporaryHash].hash,\n                        true\n                );\n                documents.push(Document(\n                        temporaryRegistry[temporaryHash].name,\n                        temporaryRegistry[temporaryHash].metadata,\n                        block.timestamp,\n                        temporaryRegistry[temporaryHash].registrant,\n                        signee,\n                        temporaryRegistry[temporaryHash].hash,\n                        true\n                ));\n                nameIndex[_name]++;\n                docsPerUser[signee]++;\n                docsPerUser[msg.sender]++;\n                emit DocumentIndex(nameIndex[_name] - 1);\n        }\n\n        function registerAddress(\n                string memory _name,\n                string memory _description\n        )\n        public\n        payable {\n                require(msg.value == prices[1]);\n                current.transfer(msg.value);\n                verifiedAddress[msg.sender] = Registrant(\n                        _name,\n                        _description,\n                        msg.sender,\n                        true);\n                registrants.push(Registrant(_name, _description, msg.sender, true));\n        }\n\n        function updateInfo(\n                string memory _name,\n                string memory _description\n        )\n        public\n        payable {\n                require(msg.value == prices[3]);\n                require(verifiedAddress[msg.sender].isEntity);\n                current.transfer(msg.value);\n                verifiedAddress[msg.sender].name = _name;\n                verifiedAddress[msg.sender].description = _description;\n                registrants.push(Registrant(_name, _description, msg.sender, true));\n        }\n\n        function verifyDocument(string memory _name, uint _nameIndex, bytes32 _fileHash) public view returns(bool) {\n                bytes32 hash = keccak256(abi.encodePacked(_name, _nameIndex));\n                if (registry[hash].hash == _fileHash) {\n                        return true;\n                } else {\n                        return false;\n                }\n        }\n\n}\n",
  "sourcePath": "/Users/yakko.majuri/Desktop/docregistry-eth/contracts/DocumentRegistration.sol",
  "compiler": {
    "name": "solc",
    "version": "0.5.0+commit.1d4f565a.Emscripten.clang"
  },
  "schemaVersion": "3.0.0",
  "updatedAt": "2019-02-26T13:28:22.191Z",
  "devdoc": {
    "methods": {}
  },
  "userdoc": {
    "methods": {}
  }
}