{
  "contractName": "Proxy",
  "abi": [
    {
      "payable": true,
      "stateMutability": "payable",
      "type": "fallback"
    },
    {
      "constant": false,
      "inputs": [
        {
          "name": "_impl",
          "type": "address"
        }
      ],
      "name": "setImplementation",
      "outputs": [],
      "payable": false,
      "stateMutability": "nonpayable",
      "type": "function"
    },
    {
      "constant": true,
      "inputs": [],
      "name": "getImplementation",
      "outputs": [
        {
          "name": "",
          "type": "address"
        }
      ],
      "payable": false,
      "stateMutability": "view",
      "type": "function"
    }
  ],
  "bytecode": "0x608060405234801561001057600080fd5b5061019d806100206000396000f3fe60806040526004361061004c576000357c0100000000000000000000000000000000000000000000000000000000900463ffffffff168063aaf10f421461008d578063d784d426146100e4575b600073ffffffffffffffffffffffffffffffffffffffff54905060405136600082376000803683855af43d806000843e8160008114610089578184f35b8184fd5b34801561009957600080fd5b506100a2610135565b604051808273ffffffffffffffffffffffffffffffffffffffff1673ffffffffffffffffffffffffffffffffffffffff16815260200191505060405180910390f35b3480156100f057600080fd5b506101336004803603602081101561010757600080fd5b81019080803573ffffffffffffffffffffffffffffffffffffffff169060200190929190505050610157565b005b60008073ffffffffffffffffffffffffffffffffffffffff5490508091505090565b8073ffffffffffffffffffffffffffffffffffffffff555056fea165627a7a72305820d5441e10167c8c20114c3116495e9912e1181d24b27f4a273dbbb64be94bffc60029",
  "source": "pragma solidity^0.5.0;\n/*\ncontract Owners {\n\n    function getOwners(address _ad) public view returns(bool) {}\n\n}\n\nUncomment to publish\n\n*/\n\n\ncontract Proxy {\n\n/*\n    constructor(address _ownerContract) public payable {\n        assembly {\n            sstore(0xfffffffffffffffffffffffffffffffffffffffe, _ownerContract)\n        }\n    }\n\nuncomment to publish\n*/\n\n    function setImplementation(address _impl) public {\n        /* address cont;\n        Owners ownerContract;\n        assembly {\n            cont := sload(0xfffffffffffffffffffffffffffffffffffffffe)\n        }\n        ownerContract = Owners(cont);\n        require(ownerContract.getOwners(msg.sender));\n        uncomment to publish\n        */\n        assembly {\n            sstore(0xffffffffffffffffffffffffffffffffffffffff, _impl)\n        }\n    }\n\n    function () external payable {\n        address localImpl;\n        assembly {\n            localImpl := sload(0xffffffffffffffffffffffffffffffffffffffff)\n        }\n        assembly {\n            let ptr := mload(0x40)\n            calldatacopy(ptr, 0, calldatasize)\n            let result := delegatecall(gas, localImpl, ptr, calldatasize, 0, 0)\n            let size := returndatasize\n            returndatacopy(ptr, 0, size)\n\n            switch result\n            case 0 { revert(ptr, size) }\n            default { return(ptr, size) }\n        }\n    }\n\n    function getImplementation() public view returns(address) {\n        address implementation;\n        assembly {\n           implementation := sload(0xffffffffffffffffffffffffffffffffffffffff)\n        }\n        return implementation;\n    }\n\n}\n",
  "sourcePath": "/Users/yakko.majuri/Desktop/docregistry-eth/contracts/Proxy.sol",
  "compiler": {
    "name": "solc",
    "version": "0.5.0+commit.1d4f565a.Emscripten.clang"
  },
  "schemaVersion": "3.0.0",
  "updatedAt": "2019-02-26T13:28:22.200Z",
  "devdoc": {
    "methods": {}
  },
  "userdoc": {
    "methods": {}
  }
}